{
  "contractName": "PGHD",
  "abi": [
    {
      "anonymous": false,
      "inputs": [
        {
          "indexed": false,
          "internalType": "address",
          "name": "patient",
          "type": "address"
        },
        {
          "indexed": false,
          "internalType": "address",
          "name": "doctor",
          "type": "address"
        }
      ],
      "name": "AccessGranted",
      "type": "event"
    },
    {
      "anonymous": false,
      "inputs": [
        {
          "indexed": false,
          "internalType": "address",
          "name": "patient",
          "type": "address"
        },
        {
          "indexed": false,
          "internalType": "address",
          "name": "doctor",
          "type": "address"
        }
      ],
      "name": "AccessRequested",
      "type": "event"
    },
    {
      "anonymous": false,
      "inputs": [
        {
          "indexed": false,
          "internalType": "address",
          "name": "patient",
          "type": "address"
        },
        {
          "indexed": false,
          "internalType": "address",
          "name": "doctor",
          "type": "address"
        }
      ],
      "name": "AccessRevoked",
      "type": "event"
    },
    {
      "anonymous": false,
      "inputs": [
        {
          "indexed": false,
          "internalType": "address",
          "name": "patient",
          "type": "address"
        },
        {
          "indexed": false,
          "internalType": "string",
          "name": "name",
          "type": "string"
        },
        {
          "indexed": false,
          "internalType": "uint256",
          "name": "age",
          "type": "uint256"
        },
        {
          "indexed": false,
          "internalType": "uint256",
          "name": "height",
          "type": "uint256"
        },
        {
          "indexed": false,
          "internalType": "uint256",
          "name": "weight",
          "type": "uint256"
        },
        {
          "indexed": false,
          "internalType": "uint256",
          "name": "systolic",
          "type": "uint256"
        },
        {
          "indexed": false,
          "internalType": "uint256",
          "name": "diastolic",
          "type": "uint256"
        },
        {
          "indexed": false,
          "internalType": "uint256",
          "name": "bloodsugar",
          "type": "uint256"
        },
        {
          "indexed": false,
          "internalType": "string",
          "name": "symptoms",
          "type": "string"
        },
        {
          "indexed": false,
          "internalType": "string",
          "name": "diet",
          "type": "string"
        },
        {
          "indexed": false,
          "internalType": "uint256",
          "name": "timestamp",
          "type": "uint256"
        }
      ],
      "name": "DataUpdated",
      "type": "event"
    },
    {
      "inputs": [
        {
          "internalType": "string",
          "name": "_name",
          "type": "string"
        },
        {
          "internalType": "uint256",
          "name": "_age",
          "type": "uint256"
        },
        {
          "internalType": "uint256",
          "name": "_height",
          "type": "uint256"
        },
        {
          "internalType": "uint256",
          "name": "_weight",
          "type": "uint256"
        },
        {
          "internalType": "uint256",
          "name": "_systolic",
          "type": "uint256"
        },
        {
          "internalType": "uint256",
          "name": "_diastolic",
          "type": "uint256"
        },
        {
          "internalType": "uint256",
          "name": "_bloodsugar",
          "type": "uint256"
        },
        {
          "internalType": "string",
          "name": "_symptoms",
          "type": "string"
        },
        {
          "internalType": "string",
          "name": "_diet",
          "type": "string"
        },
        {
          "internalType": "uint256",
          "name": "_timestamp",
          "type": "uint256"
        }
      ],
      "name": "updateData",
      "outputs": [],
      "stateMutability": "nonpayable",
      "type": "function"
    },
    {
      "inputs": [
        {
          "internalType": "address",
          "name": "_patient",
          "type": "address"
        }
      ],
      "name": "readData",
      "outputs": [
        {
          "internalType": "string",
          "name": "_name",
          "type": "string"
        },
        {
          "internalType": "uint256",
          "name": "_age",
          "type": "uint256"
        },
        {
          "internalType": "uint256",
          "name": "_height",
          "type": "uint256"
        },
        {
          "internalType": "uint256",
          "name": "_weight",
          "type": "uint256"
        },
        {
          "internalType": "uint256",
          "name": "_systolic",
          "type": "uint256"
        },
        {
          "internalType": "uint256",
          "name": "_diastolic",
          "type": "uint256"
        },
        {
          "internalType": "uint256",
          "name": "_bloodsugar",
          "type": "uint256"
        },
        {
          "internalType": "string",
          "name": "_symptoms",
          "type": "string"
        },
        {
          "internalType": "string",
          "name": "_diet",
          "type": "string"
        },
        {
          "internalType": "uint256",
          "name": "_timestamp",
          "type": "uint256"
        }
      ],
      "stateMutability": "view",
      "type": "function",
      "constant": true
    },
    {
      "inputs": [
        {
          "internalType": "address",
          "name": "_patient",
          "type": "address"
        }
      ],
      "name": "requestAccess",
      "outputs": [],
      "stateMutability": "nonpayable",
      "type": "function"
    },
    {
      "inputs": [
        {
          "internalType": "address",
          "name": "_doctor",
          "type": "address"
        },
        {
          "internalType": "uint256",
          "name": "timeGranted",
          "type": "uint256"
        }
      ],
      "name": "grantAccess",
      "outputs": [],
      "stateMutability": "nonpayable",
      "type": "function"
    },
    {
      "inputs": [
        {
          "internalType": "address",
          "name": "_doctor",
          "type": "address"
        },
        {
          "internalType": "uint256",
          "name": "timeRevoked",
          "type": "uint256"
        }
      ],
      "name": "revokeAccess",
      "outputs": [],
      "stateMutability": "nonpayable",
      "type": "function"
    },
    {
      "inputs": [
        {
          "internalType": "address",
          "name": "_patient",
          "type": "address"
        },
        {
          "internalType": "address",
          "name": "_doctor",
          "type": "address"
        }
      ],
      "name": "hasAccess",
      "outputs": [
        {
          "internalType": "bool",
          "name": "",
          "type": "bool"
        }
      ],
      "stateMutability": "view",
      "type": "function",
      "constant": true
    },
    {
      "inputs": [
        {
          "internalType": "address",
          "name": "_patient",
          "type": "address"
        }
      ],
      "name": "getDataHistory",
      "outputs": [
        {
          "components": [
            {
              "internalType": "string",
              "name": "name",
              "type": "string"
            },
            {
              "internalType": "uint256",
              "name": "age",
              "type": "uint256"
            },
            {
              "internalType": "uint256",
              "name": "height",
              "type": "uint256"
            },
            {
              "internalType": "uint256",
              "name": "weight",
              "type": "uint256"
            },
            {
              "internalType": "uint256",
              "name": "systolic",
              "type": "uint256"
            },
            {
              "internalType": "uint256",
              "name": "diastolic",
              "type": "uint256"
            },
            {
              "internalType": "uint256",
              "name": "bloodsugar",
              "type": "uint256"
            },
            {
              "internalType": "string",
              "name": "symptoms",
              "type": "string"
            },
            {
              "internalType": "string",
              "name": "diet",
              "type": "string"
            },
            {
              "internalType": "uint256",
              "name": "timestamp",
              "type": "uint256"
            }
          ],
          "internalType": "struct PGHD.Data[]",
          "name": "",
          "type": "tuple[]"
        }
      ],
      "stateMutability": "view",
      "type": "function",
      "constant": true
    },
    {
      "inputs": [
        {
          "internalType": "address",
          "name": "_patient",
          "type": "address"
        }
      ],
      "name": "getAccessRequests",
      "outputs": [
        {
          "components": [
            {
              "internalType": "address",
              "name": "doctor",
              "type": "address"
            },
            {
              "internalType": "address",
              "name": "patient",
              "type": "address"
            },
            {
              "internalType": "bool",
              "name": "granted",
              "type": "bool"
            },
            {
              "internalType": "uint256",
              "name": "timeGranted",
              "type": "uint256"
            },
            {
              "internalType": "uint256",
              "name": "timeRevoked",
              "type": "uint256"
            }
          ],
          "internalType": "struct PGHD.AccessRequest[]",
          "name": "",
          "type": "tuple[]"
        }
      ],
      "stateMutability": "view",
      "type": "function",
      "constant": true
    },
    {
      "inputs": [
        {
          "internalType": "address",
          "name": "_patient",
          "type": "address"
        }
      ],
      "name": "getPreviousRequests",
      "outputs": [
        {
          "components": [
            {
              "internalType": "address",
              "name": "doctor",
              "type": "address"
            },
            {
              "internalType": "address",
              "name": "patient",
              "type": "address"
            },
            {
              "internalType": "bool",
              "name": "granted",
              "type": "bool"
            },
            {
              "internalType": "uint256",
              "name": "timeGranted",
              "type": "uint256"
            },
            {
              "internalType": "uint256",
              "name": "timeRevoked",
              "type": "uint256"
            }
          ],
          "internalType": "struct PGHD.AccessRequest[]",
          "name": "",
          "type": "tuple[]"
        }
      ],
      "stateMutability": "view",
      "type": "function",
      "constant": true
    }
  ],
  "bytecode": "0x608060405234801561001057600080fd5b50612aec806100206000396000f3fe608060405234801561001057600080fd5b50600436106100935760003560e01c80637e6c3534116100665780637e6c35341461014d5780639df892561461017d578063a99d837914610199578063cf374334146101b5578063ebc401d7146101e557610093565b8063022cb27114610098578063030e7a33146100b45780631709ef07146100ed57806373b7c5aa1461011d575b600080fd5b6100b260048036038101906100ad9190611eb7565b610201565b005b6100ce60048036038101906100c99190611eb7565b6104c3565b6040516100e49a9998979695949392919061262a565b60405180910390f35b61010760048036038101906101029190611ee0565b6107f2565b604051610114919061260f565b60405180910390f35b61013760048036038101906101329190611eb7565b61096e565b60405161014491906125cb565b60405180910390f35b61016760048036038101906101629190611eb7565b610ae7565b60405161017491906125ed565b60405180910390f35b61019760048036038101906101929190611f1c565b610e01565b005b6101b360048036038101906101ae9190611f1c565b611069565b005b6101cf60048036038101906101ca9190611eb7565b611731565b6040516101dc91906125cb565b60405180910390f35b6101ff60048036038101906101fa9190611f58565b6118aa565b005b6000600160008373ffffffffffffffffffffffffffffffffffffffff1673ffffffffffffffffffffffffffffffffffffffff168152602001908152602001600020905060005b818054905081101561033f573373ffffffffffffffffffffffffffffffffffffffff168282815481106102a3577f4e487b7100000000000000000000000000000000000000000000000000000000600052603260045260246000fd5b906000526020600020906004020160000160009054906101000a900473ffffffffffffffffffffffffffffffffffffffff1673ffffffffffffffffffffffffffffffffffffffff16141561032c576040517f08c379a0000000000000000000000000000000000000000000000000000000008152600401610323906126db565b60405180910390fd5b8080610337906129a1565b915050610247565b50806040518060a001604052803373ffffffffffffffffffffffffffffffffffffffff1681526020018473ffffffffffffffffffffffffffffffffffffffff168152602001600015158152602001600081526020016000815250908060018154018082558091505060019003906000526020600020906004020160009091909190915060008201518160000160006101000a81548173ffffffffffffffffffffffffffffffffffffffff021916908373ffffffffffffffffffffffffffffffffffffffff16021790555060208201518160010160006101000a81548173ffffffffffffffffffffffffffffffffffffffff021916908373ffffffffffffffffffffffffffffffffffffffff16021790555060408201518160010160146101000a81548160ff021916908315150217905550606082015181600201556080820151816003015550507f40c7749b16fdfb0d550f20273a7767875059d647af94f5a9610c63ad73dcc79f82336040516104b79291906124e2565b60405180910390a15050565b606060008060008060008060608060008a73ffffffffffffffffffffffffffffffffffffffff163373ffffffffffffffffffffffffffffffffffffffff16148061051357506105128b336107f2565b5b610552576040517f08c379a00000000000000000000000000000000000000000000000000000000081526004016105499061273b565b60405180910390fd5b60008060008d73ffffffffffffffffffffffffffffffffffffffff1673ffffffffffffffffffffffffffffffffffffffff168152602001908152602001600020604051806101400160405290816000820180546105ae9061296f565b80601f01602080910402602001604051908101604052809291908181526020018280546105da9061296f565b80156106275780601f106105fc57610100808354040283529160200191610627565b820191906000526020600020905b81548152906001019060200180831161060a57829003601f168201915b5050505050815260200160018201548152602001600282015481526020016003820154815260200160048201548152602001600582015481526020016006820154815260200160078201805461067c9061296f565b80601f01602080910402602001604051908101604052809291908181526020018280546106a89061296f565b80156106f55780601f106106ca576101008083540402835291602001916106f5565b820191906000526020600020905b8154815290600101906020018083116106d857829003601f168201915b5050505050815260200160088201805461070e9061296f565b80601f016020809104026020016040519081016040528092919081815260200182805461073a9061296f565b80156107875780601f1061075c57610100808354040283529160200191610787565b820191906000526020600020905b81548152906001019060200180831161076a57829003601f168201915b505050505081526020016009820154815250509050806000015181602001518260400151836060015184608001518560a001518660c001518760e001518861010001518961012001519a509a509a509a509a509a509a509a509a509a50509193959799509193959799565b600080600160008573ffffffffffffffffffffffffffffffffffffffff1673ffffffffffffffffffffffffffffffffffffffff168152602001908152602001600020905060005b8180549050811015610961578373ffffffffffffffffffffffffffffffffffffffff16828281548110610895577f4e487b7100000000000000000000000000000000000000000000000000000000600052603260045260246000fd5b906000526020600020906004020160000160009054906101000a900473ffffffffffffffffffffffffffffffffffffffff1673ffffffffffffffffffffffffffffffffffffffff1614801561093e575081818154811061091e577f4e487b7100000000000000000000000000000000000000000000000000000000600052603260045260246000fd5b906000526020600020906004020160010160149054906101000a900460ff165b1561094e57600192505050610968565b8080610959906129a1565b915050610839565b5060009150505b92915050565b6060600260008373ffffffffffffffffffffffffffffffffffffffff1673ffffffffffffffffffffffffffffffffffffffff168152602001908152602001600020805480602002602001604051908101604052809291908181526020016000905b82821015610adc57838290600052602060002090600402016040518060a00160405290816000820160009054906101000a900473ffffffffffffffffffffffffffffffffffffffff1673ffffffffffffffffffffffffffffffffffffffff1673ffffffffffffffffffffffffffffffffffffffff1681526020016001820160009054906101000a900473ffffffffffffffffffffffffffffffffffffffff1673ffffffffffffffffffffffffffffffffffffffff1673ffffffffffffffffffffffffffffffffffffffff1681526020016001820160149054906101000a900460ff1615151515815260200160028201548152602001600382015481525050815260200190600101906109cf565b505050509050919050565b60608173ffffffffffffffffffffffffffffffffffffffff163373ffffffffffffffffffffffffffffffffffffffff161480610b295750610b2882336107f2565b5b610b68576040517f08c379a0000000000000000000000000000000000000000000000000000000008152600401610b5f9061273b565b60405180910390fd5b600360008373ffffffffffffffffffffffffffffffffffffffff1673ffffffffffffffffffffffffffffffffffffffff168152602001908152602001600020805480602002602001604051908101604052809291908181526020016000905b82821015610df657838290600052602060002090600a020160405180610140016040529081600082018054610bfb9061296f565b80601f0160208091040260200160405190810160405280929190818152602001828054610c279061296f565b8015610c745780601f10610c4957610100808354040283529160200191610c74565b820191906000526020600020905b815481529060010190602001808311610c5757829003601f168201915b50505050508152602001600182015481526020016002820154815260200160038201548152602001600482015481526020016005820154815260200160068201548152602001600782018054610cc99061296f565b80601f0160208091040260200160405190810160405280929190818152602001828054610cf59061296f565b8015610d425780601f10610d1757610100808354040283529160200191610d42565b820191906000526020600020905b815481529060010190602001808311610d2557829003601f168201915b50505050508152602001600882018054610d5b9061296f565b80601f0160208091040260200160405190810160405280929190818152602001828054610d879061296f565b8015610dd45780601f10610da957610100808354040283529160200191610dd4565b820191906000526020600020905b815481529060010190602001808311610db757829003601f168201915b5050505050815260200160098201548152505081526020019060010190610bc7565b505050509050919050565b8173ffffffffffffffffffffffffffffffffffffffff163373ffffffffffffffffffffffffffffffffffffffff161415610e70576040517f08c379a0000000000000000000000000000000000000000000000000000000008152600401610e679061271b565b60405180910390fd5b6000600160003373ffffffffffffffffffffffffffffffffffffffff1673ffffffffffffffffffffffffffffffffffffffff168152602001908152602001600020905060005b8180549050811015611063578373ffffffffffffffffffffffffffffffffffffffff16828281548110610f12577f4e487b7100000000000000000000000000000000000000000000000000000000600052603260045260246000fd5b906000526020600020906004020160000160009054906101000a900473ffffffffffffffffffffffffffffffffffffffff1673ffffffffffffffffffffffffffffffffffffffff161415611050576001828281548110610f9b577f4e487b7100000000000000000000000000000000000000000000000000000000600052603260045260246000fd5b906000526020600020906004020160010160146101000a81548160ff02191690831515021790555082828281548110610ffd577f4e487b7100000000000000000000000000000000000000000000000000000000600052603260045260246000fd5b9060005260206000209060040201600201819055507f9f520b3bfc56d06f7065d10b4683b3f57ac8895d5026cd176dee95ce1454cb8d33856040516110439291906124e2565b60405180910390a1611063565b808061105b906129a1565b915050610eb6565b50505050565b8173ffffffffffffffffffffffffffffffffffffffff163373ffffffffffffffffffffffffffffffffffffffff1614156110d8576040517f08c379a00000000000000000000000000000000000000000000000000000000081526004016110cf906126fb565b60405180910390fd5b6000600160003373ffffffffffffffffffffffffffffffffffffffff1673ffffffffffffffffffffffffffffffffffffffff168152602001908152602001600020905060005b818054905081101561172b578373ffffffffffffffffffffffffffffffffffffffff1682828154811061117a577f4e487b7100000000000000000000000000000000000000000000000000000000600052603260045260246000fd5b906000526020600020906004020160000160009054906101000a900473ffffffffffffffffffffffffffffffffffffffff1673ffffffffffffffffffffffffffffffffffffffff161415611718576000828281548110611203577f4e487b7100000000000000000000000000000000000000000000000000000000600052603260045260246000fd5b906000526020600020906004020160010160146101000a81548160ff02191690831515021790555082828281548110611265577f4e487b7100000000000000000000000000000000000000000000000000000000600052603260045260246000fd5b906000526020600020906004020160030181905550600260003373ffffffffffffffffffffffffffffffffffffffff1673ffffffffffffffffffffffffffffffffffffffff1681526020019081526020016000208282815481106112f2577f4e487b7100000000000000000000000000000000000000000000000000000000600052603260045260246000fd5b906000526020600020906004020190806001815401808255809150506001900390600052602060002090600402016000909190919091506000820160009054906101000a900473ffffffffffffffffffffffffffffffffffffffff168160000160006101000a81548173ffffffffffffffffffffffffffffffffffffffff021916908373ffffffffffffffffffffffffffffffffffffffff1602179055506001820160009054906101000a900473ffffffffffffffffffffffffffffffffffffffff168160010160006101000a81548173ffffffffffffffffffffffffffffffffffffffff021916908373ffffffffffffffffffffffffffffffffffffffff1602179055506001820160149054906101000a900460ff168160010160146101000a81548160ff021916908315150217905550600282015481600201556003820154816003015550507f825c8be24eb0df19500f63e86c29e7d0d951e73056b889b891d85e40938d9b6e338560405161146b9291906124e2565b60405180910390a160008190505b6001838054905061148a91906128b1565b811015611650578260018261149f919061285b565b815481106114d6577f4e487b7100000000000000000000000000000000000000000000000000000000600052603260045260246000fd5b906000526020600020906004020183828154811061151d577f4e487b7100000000000000000000000000000000000000000000000000000000600052603260045260246000fd5b90600052602060002090600402016000820160009054906101000a900473ffffffffffffffffffffffffffffffffffffffff168160000160006101000a81548173ffffffffffffffffffffffffffffffffffffffff021916908373ffffffffffffffffffffffffffffffffffffffff1602179055506001820160009054906101000a900473ffffffffffffffffffffffffffffffffffffffff168160010160006101000a81548173ffffffffffffffffffffffffffffffffffffffff021916908373ffffffffffffffffffffffffffffffffffffffff1602179055506001820160149054906101000a900460ff168160010160146101000a81548160ff02191690831515021790555060028201548160020155600382015481600301559050508080611648906129a1565b915050611479565b5081805480611688577f4e487b7100000000000000000000000000000000000000000000000000000000600052603160045260246000fd5b6001900381819060005260206000209060040201600080820160006101000a81549073ffffffffffffffffffffffffffffffffffffffff02191690556001820160006101000a81549073ffffffffffffffffffffffffffffffffffffffff02191690556001820160146101000a81549060ff0219169055600282016000905560038201600090555050905561172b565b8080611723906129a1565b91505061111e565b50505050565b6060600160008373ffffffffffffffffffffffffffffffffffffffff1673ffffffffffffffffffffffffffffffffffffffff168152602001908152602001600020805480602002602001604051908101604052809291908181526020016000905b8282101561189f57838290600052602060002090600402016040518060a00160405290816000820160009054906101000a900473ffffffffffffffffffffffffffffffffffffffff1673ffffffffffffffffffffffffffffffffffffffff1673ffffffffffffffffffffffffffffffffffffffff1681526020016001820160009054906101000a900473ffffffffffffffffffffffffffffffffffffffff1673ffffffffffffffffffffffffffffffffffffffff1673ffffffffffffffffffffffffffffffffffffffff1681526020016001820160149054906101000a900460ff161515151581526020016002820154815260200160038201548152505081526020019060010190611792565b505050509050919050565b600033905060008060008373ffffffffffffffffffffffffffffffffffffffff1673ffffffffffffffffffffffffffffffffffffffff1681526020019081526020016000206040518061014001604052908160008201805461190b9061296f565b80601f01602080910402602001604051908101604052809291908181526020018280546119379061296f565b80156119845780601f1061195957610100808354040283529160200191611984565b820191906000526020600020905b81548152906001019060200180831161196757829003601f168201915b505050505081526020016001820154815260200160028201548152602001600382015481526020016004820154815260200160058201548152602001600682015481526020016007820180546119d99061296f565b80601f0160208091040260200160405190810160405280929190818152602001828054611a059061296f565b8015611a525780601f10611a2757610100808354040283529160200191611a52565b820191906000526020600020905b815481529060010190602001808311611a3557829003601f168201915b50505050508152602001600882018054611a6b9061296f565b80601f0160208091040260200160405190810160405280929190818152602001828054611a979061296f565b8015611ae45780601f10611ab957610100808354040283529160200191611ae4565b820191906000526020600020905b815481529060010190602001808311611ac757829003601f168201915b505050505081526020016009820154815250509050600360008373ffffffffffffffffffffffffffffffffffffffff1673ffffffffffffffffffffffffffffffffffffffff1681526020019081526020016000208190806001815401808255809150506001900390600052602060002090600a02016000909190919091506000820151816000019080519060200190611b7e929190611d82565b506020820151816001015560408201518160020155606082015181600301556080820151816004015560a0820151816005015560c0820151816006015560e0820151816007019080519060200190611bd7929190611d82565b50610100820151816008019080519060200190611bf5929190611d82565b50610120820151816009015550506040518061014001604052808d81526020018c81526020018b81526020018a8152602001898152602001888152602001878152602001868152602001858152602001848152506000803373ffffffffffffffffffffffffffffffffffffffff1673ffffffffffffffffffffffffffffffffffffffff1681526020019081526020016000206000820151816000019080519060200190611ca3929190611d82565b506020820151816001015560408201518160020155606082015181600301556080820151816004015560a0820151816005015560c0820151816006015560e0820151816007019080519060200190611cfc929190611d82565b50610100820151816008019080519060200190611d1a929190611d82565b5061012082015181600901559050507f879338bd58e262077943b7c948ee1545e293c6ec4d2c2580ab4af4c1d8e53209338d8d8d8d8d8d8d8d8d8d604051611d6c9b9a9998979695949392919061250b565b60405180910390a1505050505050505050505050565b828054611d8e9061296f565b90600052602060002090601f016020900481019282611db05760008555611df7565b82601f10611dc957805160ff1916838001178555611df7565b82800160010185558215611df7579182015b82811115611df6578251825591602001919060010190611ddb565b5b509050611e049190611e08565b5090565b5b80821115611e21576000816000905550600101611e09565b5090565b6000611e38611e338461278c565b61275b565b905082815260208101848484011115611e5057600080fd5b611e5b84828561292d565b509392505050565b600081359050611e7281612a88565b92915050565b600082601f830112611e8957600080fd5b8135611e99848260208601611e25565b91505092915050565b600081359050611eb181612a9f565b92915050565b600060208284031215611ec957600080fd5b6000611ed784828501611e63565b91505092915050565b60008060408385031215611ef357600080fd5b6000611f0185828601611e63565b9250506020611f1285828601611e63565b9150509250929050565b60008060408385031215611f2f57600080fd5b6000611f3d85828601611e63565b9250506020611f4e85828601611ea2565b9150509250929050565b6000806000806000806000806000806101408b8d031215611f7857600080fd5b60008b013567ffffffffffffffff811115611f9257600080fd5b611f9e8d828e01611e78565b9a50506020611faf8d828e01611ea2565b9950506040611fc08d828e01611ea2565b9850506060611fd18d828e01611ea2565b9750506080611fe28d828e01611ea2565b96505060a0611ff38d828e01611ea2565b95505060c06120048d828e01611ea2565b94505060e08b013567ffffffffffffffff81111561202157600080fd5b61202d8d828e01611e78565b9350506101008b013567ffffffffffffffff81111561204b57600080fd5b6120578d828e01611e78565b9250506101206120698d828e01611ea2565b9150509295989b9194979a5092959850565b60006120878383612374565b60a08301905092915050565b600061209f83836123dc565b905092915050565b6120b0816128e5565b82525050565b6120bf816128e5565b82525050565b60006120d0826127dc565b6120da8185612817565b93506120e5836127bc565b8060005b838110156121165781516120fd888261207b565b9750612108836127fd565b9250506001810190506120e9565b5085935050505092915050565b600061212e826127e7565b6121388185612828565b93508360208202850161214a856127cc565b8060005b8581101561218657848403895281516121678582612093565b94506121728361280a565b925060208a0199505060018101905061214e565b50829750879550505050505092915050565b6121a1816128f7565b82525050565b6121b0816128f7565b82525050565b60006121c1826127f2565b6121cb8185612839565b93506121db81856020860161293c565b6121e481612a77565b840191505092915050565b60006121fa826127f2565b612204818561284a565b935061221481856020860161293c565b61221d81612a77565b840191505092915050565b600061223560208361284a565b91507f416363657373207265717565737420616c7265616479207375626d69747465646000830152602082019050919050565b6000612275602d8361284a565b91507f50617469656e74732063616e6e6f74207265766f6b652061636365737320667260008301527f6f6d207468656d73656c766573000000000000000000000000000000000000006020830152604082019050919050565b60006122db602a8361284a565b91507f50617469656e74732063616e6e6f74206772616e742061636365737320746f2060008301527f7468656d73656c766573000000000000000000000000000000000000000000006020830152604082019050919050565b6000612341600d8361284a565b91507f4163636573732064656e696564000000000000000000000000000000000000006000830152602082019050919050565b60a08201600082015161238a60008501826120a7565b50602082015161239d60208501826120a7565b5060408201516123b06040850182612198565b5060608201516123c360608501826124c4565b5060808201516123d660808501826124c4565b50505050565b60006101408301600083015184820360008601526123fa82826121b6565b915050602083015161240f60208601826124c4565b50604083015161242260408601826124c4565b50606083015161243560608601826124c4565b50608083015161244860808601826124c4565b5060a083015161245b60a08601826124c4565b5060c083015161246e60c08601826124c4565b5060e083015184820360e086015261248682826121b6565b9150506101008301518482036101008601526124a282826121b6565b9150506101208301516124b96101208601826124c4565b508091505092915050565b6124cd81612923565b82525050565b6124dc81612923565b82525050565b60006040820190506124f760008301856120b6565b61250460208301846120b6565b9392505050565b600061016082019050612521600083018e6120b6565b8181036020830152612533818d6121ef565b9050612542604083018c6124d3565b61254f606083018b6124d3565b61255c608083018a6124d3565b61256960a08301896124d3565b61257660c08301886124d3565b61258360e08301876124d3565b81810361010083015261259681866121ef565b90508181036101208301526125ab81856121ef565b90506125bb6101408301846124d3565b9c9b505050505050505050505050565b600060208201905081810360008301526125e581846120c5565b905092915050565b600060208201905081810360008301526126078184612123565b905092915050565b600060208201905061262460008301846121a7565b92915050565b6000610140820190508181036000830152612645818d6121ef565b9050612654602083018c6124d3565b612661604083018b6124d3565b61266e606083018a6124d3565b61267b60808301896124d3565b61268860a08301886124d3565b61269560c08301876124d3565b81810360e08301526126a781866121ef565b90508181036101008301526126bc81856121ef565b90506126cc6101208301846124d3565b9b9a5050505050505050505050565b600060208201905081810360008301526126f481612228565b9050919050565b6000602082019050818103600083015261271481612268565b9050919050565b60006020820190508181036000830152612734816122ce565b9050919050565b6000602082019050818103600083015261275481612334565b9050919050565b6000604051905081810181811067ffffffffffffffff8211171561278257612781612a48565b5b8060405250919050565b600067ffffffffffffffff8211156127a7576127a6612a48565b5b601f19601f8301169050602081019050919050565b6000819050602082019050919050565b6000819050602082019050919050565b600081519050919050565b600081519050919050565b600081519050919050565b6000602082019050919050565b6000602082019050919050565b600082825260208201905092915050565b600082825260208201905092915050565b600082825260208201905092915050565b600082825260208201905092915050565b600061286682612923565b915061287183612923565b9250827fffffffffffffffffffffffffffffffffffffffffffffffffffffffffffffffff038211156128a6576128a56129ea565b5b828201905092915050565b60006128bc82612923565b91506128c783612923565b9250828210156128da576128d96129ea565b5b828203905092915050565b60006128f082612903565b9050919050565b60008115159050919050565b600073ffffffffffffffffffffffffffffffffffffffff82169050919050565b6000819050919050565b82818337600083830152505050565b60005b8381101561295a57808201518184015260208101905061293f565b83811115612969576000848401525b50505050565b6000600282049050600182168061298757607f821691505b6020821081141561299b5761299a612a19565b5b50919050565b60006129ac82612923565b91507fffffffffffffffffffffffffffffffffffffffffffffffffffffffffffffffff8214156129df576129de6129ea565b5b600182019050919050565b7f4e487b7100000000000000000000000000000000000000000000000000000000600052601160045260246000fd5b7f4e487b7100000000000000000000000000000000000000000000000000000000600052602260045260246000fd5b7f4e487b7100000000000000000000000000000000000000000000000000000000600052604160045260246000fd5b6000601f19601f8301169050919050565b612a91816128e5565b8114612a9c57600080fd5b50565b612aa881612923565b8114612ab357600080fd5b5056fea2646970667358221220bcb0dda1a9bae89f4f0b781ec6eb7159f23f314796d536a137d5d232fd14b7c164736f6c63430008000033",
  "immutableReferences": {},
  "source": "// SPDX-License-Identifier: MIT\r\n\r\npragma solidity ^0.8.0;\r\n\r\ncontract PGHD {\r\n    struct Data {\r\n        string name;\r\n        uint age;\r\n        uint height;\r\n        uint weight;\r\n        uint systolic;\r\n        uint diastolic;\r\n        uint bloodsugar;\r\n        string symptoms;\r\n        string diet;\r\n        uint timestamp;\r\n    }\r\n\r\n    struct AccessRequest {\r\n        address doctor;\r\n        address patient;\r\n        bool granted;\r\n        uint timeGranted;\r\n        uint timeRevoked;\r\n    }\r\n\r\n    mapping(address => Data) private patientData;\r\n    mapping(address => AccessRequest[]) private accessRequests;\r\n    mapping(address => AccessRequest[]) private previousRequests;\r\n    mapping(address => Data[]) private dataHistory;\r\n\r\n    event DataUpdated(address patient, string name, uint age, uint height, uint weight, uint systolic, uint diastolic, uint bloodsugar, string symptoms, string diet, uint timestamp);\r\n    event AccessRequested(address patient, address doctor);\r\n    event AccessGranted(address patient, address doctor);\r\n    event AccessRevoked(address patient, address doctor);\r\n\r\n    function updateData(string memory _name, uint _age, uint _height, uint _weight, uint  _systolic, uint _diastolic, uint _bloodsugar, string memory _symptoms, string memory _diet, uint _timestamp) public {\r\n        address patient = msg.sender;\r\n        Data memory currentData = patientData[patient];\r\n\r\n        dataHistory[patient].push(currentData);\r\n                patientData[msg.sender] = Data(_name, _age, _height, _weight, _systolic, _diastolic, _bloodsugar, _symptoms, _diet, _timestamp);\r\n        emit DataUpdated(msg.sender, _name, _age, _height, _weight, _systolic, _diastolic, _bloodsugar, _symptoms, _diet, _timestamp);\r\n    }\r\n\r\n    function readData(address _patient) public view returns (string memory _name, uint _age, uint _height, uint _weight, uint  _systolic, uint _diastolic, uint _bloodsugar, string memory _symptoms, string memory _diet, uint _timestamp) {\r\n        require(msg.sender == _patient || hasAccess(_patient, msg.sender), \"Access denied\");\r\n        Data memory data = patientData[_patient];\r\n        return (data.name, data.age, data.height, data.weight, data.systolic, data.diastolic, data.bloodsugar, data.symptoms, data.diet, data.timestamp);\r\n    }\r\n\r\n    function requestAccess(address _patient) public {\r\n        AccessRequest[] storage requests = accessRequests[_patient];\r\n        for (uint i = 0; i < requests.length; i++) {\r\n            require(requests[i].doctor != msg.sender, \"Access request already submitted\");\r\n        }\r\n        requests.push(AccessRequest(msg.sender, _patient, false, 0, 0));\r\n        emit AccessRequested(_patient, msg.sender);\r\n    }\r\n\r\n    function grantAccess(address _doctor, uint timeGranted) public {\r\n        require(msg.sender != _doctor, \"Patients cannot grant access to themselves\");\r\n        AccessRequest[] storage requests = accessRequests[msg.sender];\r\n        for (uint i = 0; i < requests.length; i++) {\r\n            if (requests[i].doctor == _doctor) {\r\n                requests[i].granted = true;\r\n                requests[i].timeGranted = timeGranted;\r\n                emit AccessGranted(msg.sender, _doctor);\r\n                break;\r\n            }\r\n        }\r\n    }\r\n\r\n    function revokeAccess(address _doctor, uint timeRevoked) public {\r\n        require(msg.sender != _doctor, \"Patients cannot revoke access from themselves\");\r\n        AccessRequest[] storage requests = accessRequests[msg.sender];\r\n        for (uint i = 0; i < requests.length; i++) {\r\n            if (requests[i].doctor == _doctor) {\r\n\r\n                requests[i].granted = false;\r\n                requests[i].timeRevoked = timeRevoked;\r\n                previousRequests[msg.sender].push(requests[i]);\r\n                emit AccessRevoked(msg.sender, _doctor);\r\n\r\n                for (uint j = i; j < requests.length - 1; j++) {\r\n                    requests[j] = requests[j + 1];\r\n                }\r\n                requests.pop();\r\n                break;\r\n            }\r\n        }\r\n    }\r\n\r\n    function hasAccess(address _patient, address _doctor) public view returns (bool) {\r\n        AccessRequest[] storage requests = accessRequests[_patient];\r\n        for (uint i = 0; i < requests.length; i++) {\r\n            if (requests[i].doctor == _doctor && requests[i].granted) {\r\n                return true;\r\n            }\r\n        }\r\n        return false;\r\n    }\r\n\r\n    function getDataHistory(address _patient) public view returns (Data[] memory) {\r\n        require(msg.sender == _patient || hasAccess(_patient, msg.sender), \"Access denied\");\r\n        return dataHistory[_patient];\r\n    }\r\n\r\n    function getAccessRequests(address _patient) public view returns (AccessRequest[] memory) {\r\n        return accessRequests[_patient];\r\n    }\r\n\r\n    function getPreviousRequests(address _patient) public view returns (AccessRequest[] memory) {\r\n        return previousRequests[_patient];\r\n    }\r\n}",
  "sourcePath": "C:\\Users\\reyes\\Projects\\PGHD-Chain\\blockchain\\contracts\\PGHD.sol",
  "compiler": {
    "name": "solc",
    "version": "0.8.0+commit.c7dfd78e.Emscripten.clang"
  },
  "schemaVersion": "3.4.16",
  "updatedAt": "2024-08-19T07:57:30.438Z",
  "networkType": "ethereum",
  "devdoc": {
    "kind": "dev",
    "methods": {},
    "version": 1
  },
  "userdoc": {
    "kind": "user",
    "methods": {},
    "version": 1
  }
}